:020000040000FA
:100000000C945E000C9486000C9486000C94860080
:100010000C9486000C9486000C9486000C94860048
:100020000C9486000C9486000C9486000C94860038
:100030000C9486000C9486000C9486000C94860028
:100040000C9401070C9486000C94CF060C94A9061E
:100050000C9486000C9486000C9486000C94860008
:100060000C9486000C948600000000080002010039
:100070000003040700000000000000000000000072
:10008000250028002B0000000000240027002A0083
:10009000040404040404040402020202020203032E
:1000A0000303030301020408102040800102040836
:1000B00010200102040810204B07490911241FBE1B
:1000C000CFEFD8E0DEBFCDBF22E0ACE3B1E001C0AE
:1000D0001D92A134B207E1F711E0A0E0B1E0E8E33E
:1000E000F8E102C005900D92AC33B107D9F710E0EA
:1000F000CDE5D0E004C02197FE010E940E0ACC3568
:10010000D107C9F70E94A7070C940F0C0C940000AC
:1001100090E0FC01EC55FF4F249180579F4FFC016C
:100120008491882399F090E0880F991FFC01EA5789
:10013000FF4FA591B491FC01E458FF4F8591949134
:100140008FB7F894EC91E22BEC938FBF089508954C
:10015000AF92BF92CF92DF92EF92FF920F931F93D5
:10016000CF93DF936C017B018B01040F151FEB0113
:100170005E01AE18BF08C017D10759F06991D601CA
:10018000ED91FC910190F081E02DC6010995892B3C
:1001900079F7C501DF91CF911F910F91FF90EF90FB
:1001A000DF90CF90BF90AF900895FC01538D448DA8
:1001B000252F30E0842F90E0821B930B541710F012
:1001C000CF96089501970895FC01918D828D98171F
:1001D00061F0A28DAE0FBF2FB11D5D968C91928DF7
:1001E0009F5F9F73928F90E008958FEF9FEF089528
:1001F000FC01918D828D981731F0828DE80FF11DF1
:10020000858D90E008958FEF9FEF0895FC01918D0B
:10021000228D892F90E0805C9F4F821B91098F7304
:100220009927089588E591E00E94060121E0892B35
:1002300009F420E0822F089580E090E0892B29F0D6
:100240000E94120181110C9400000895FC01A48DFC
:10025000A80FB92FB11DA35ABF4F2C91848D90E0E8
:1002600001968F739927848FA689B7892C93A089CB
:10027000B1898C91837080648C93938D848D981355
:1002800006C00288F389E02D80818F7D80830895E8
:10029000EF92FF920F931F93CF93DF93EC0181E0D6
:1002A000888F9B8D8C8D98131AC0E889F98980817D
:1002B00085FF15C09FB7F894EE89FF896083E889B0
:1002C000F98980818370806480839FBF81E090E0A2
:1002D000DF91CF911F910F91FF90EF900895F62E2F
:1002E0000B8D10E00F5F1F4F0F731127E02E8C8DC9
:1002F0008E110CC00FB607FCFACFE889F98980810E
:1003000085FFF5CFCE010E942601F1CFEB8DEC0FDA
:10031000FD2FF11DE35AFF4FF0829FB7F8940B8F2A
:10032000EA89FB8980818062CFCFCF93DF93EC0194
:10033000888D8823B9F0AA89BB89E889F9898C91CD
:1003400085FD03C0808186FD0DC00FB607FCF7CF89
:100350008C9185FFF2CF808185FFEDCFCE010E9489
:100360002601E9CFDF91CF91089590E0FC01E85993
:10037000FF4F2491FC01EC55FF4F3491FC01E057F5
:10038000FF4FE491EE23C9F0222339F0233001F12D
:10039000A8F4213019F1223029F1F0E0EE0FFF1F0F
:1003A000E458FF4FA591B4918FB7F894EC91611187
:1003B00026C030953E233C938FBF08952730A9F087
:1003C0002830C9F0243049F7809180008F7D03C028
:1003D000809180008F7780938000DFCF84B58F7706
:1003E00084BDDBCF84B58F7DFBCF8091B0008F774C
:1003F0008093B000D2CF8091B0008F7DF9CF3E2B9B
:10040000DACF1F93CF93DF93182FEB010E94880060
:10041000209739F460E0812FDF91CF911F910C94E8
:10042000B501CF3FD10511F461E0F5CFE12FF0E048
:10043000E859FF4FE491E33031F140F4E130B1F09D
:10044000E230E1F0C038D1057CF7E4CFE73029F1A4
:10045000E83059F1E430B1F78091800080628093F8
:100460008000D0938B00C0938A0004C084B580685C
:1004700084BDC7BDDF91CF911F91089584B580627F
:1004800084BDC8BDF7CF80918000806880938000D4
:10049000D0938900C0938800EDCF8091B000806830
:1004A0008093B000C093B300E5CF8091B00080622C
:1004B0008093B000C093B400DDCF3FB7F894809133
:1004C000460190914701A0914801B091490126B59C
:1004D000A89B05C02F3F19F00196A11DB11D3FBF7C
:1004E000BA2FA92F982F8827BC01CD01620F711D4B
:1004F000811D911D42E0660F771F881F991F4A9545
:10050000D1F708958F929F92AF92BF92CF92DF92D0
:10051000EF92FF92CF93DF935B017A016901CFEFF6
:10052000D0E0BE01681B790B89E00E940102BE0188
:100530006A197B098AE00E940102BE016E197F09D7
:1005400086E00E9401020D2C000CEE08FF080E94BC
:100550005D024B015C01C114D104E104F104B9F066
:100560000E945D02681979098A099B09683E7340F7
:100570008105910580F321E0C21AD108E108F10854
:1005800088EE880E83E0981EA11CB11CE4CFDF9199
:10059000CF91FF90EF90DF90CF90BF90AF909F9062
:1005A0008F900895FC0101900020E9F73197AF0189
:1005B000481B590BBC0188E591E00C94A800CF932F
:1005C000DF930E94D202EC0189E191E00E94D20205
:1005D0008C0F9D1FDF91CF9108958F929F92AF92C4
:1005E000BF92CF92DF92EF92FF920F931F93CF9320
:1005F000DF93CDB7DEB7A1970FB6F894DEBF0FBE7D
:10060000CDBF6B017C01F7FE41C06DE288E591E052
:100610000E9448018C0122273327A9012C193D098A
:100620004E095F0919A2CE0181967C019AE0892EBC
:10063000912CA12CB12CCA01B901A50194010E94F1
:10064000EC09605DF70162937F01211531054105D9
:10065000510589F790E080E0309719F0CF010E94B2
:10066000D202800F911FA1960FB6F894DEBF0FBE85
:10067000CDBFDF91CF911F910F91FF90EF90DF9051
:10068000CF90BF90AF909F908F900895AC019B0149
:1006900019A28E010F5D1F4F8AE0C82ED12CE12CCC
:1006A000F12CCA01B901A70196010E94EC09605D15
:1006B000F80162938F01211531054105510589F734
:1006C00090E080E0309779F2CF010E94D202CBCF48
:1006D000FC0124813581232B49F06CE171E080819C
:1006E00091810E94FF0B21E0892B09F020E0822FED
:1006F00008950F931F93CF93DF938C01EB01FC01BF
:10070000808191810097E1F068817981611571059F
:10071000A9F0428153812C813D814217530770F02B
:100720000E94080C8C819D81F801958384831D8231
:100730001C82DF91CF911F910F9108950E94B00A02
:1007400088819981F801918380838A819B81938339
:1007500082838C819D8195838483198218821B8278
:100760001A82E5CFCF93DF93EC01888199810097BE
:1007700011F00E94B00A198218821D821C821B820D
:100780001A82DF91CF910895FC01808191810097B9
:1007900011F00C94B00A08950F931F93CF93DF9339
:1007A000EC0188819981009759F02A813B812617B5
:1007B000370730F081E0DF91CF911F910F910895BD
:1007C0008B016F5F7F4F0E94390B009759F099831F
:1007D00088831B830A832C813D81232B59F7FC01DD
:1007E0001082E8CF80E0E7CFEF92FF920F931F9344
:1007F000CF93DF93EC01FB01E080F180E114F10481
:1008000011F10481158101151105A9F08C819D81DB
:10081000080F191FB801CE010E94CC03882399F05C
:10082000288139818C819D81B701820F931F0E949D
:10083000080C1D830C83CE01DF91CF911F910F9186
:10084000FF90EF900895CE010E94B203F4CFEF9293
:10085000FF920F931F93CF93DF93EC017B018A01EB
:10086000BA010E94CC0381110BC0CE010E94B203D9
:10087000CE01DF91CF911F910F91FF90EF900895DE
:100880001D830C83B701888199810E94080CF0CFE9
:10089000FC0111821082138212821582148250E0B0
:1008A00040E06BE171E00C942704FB010190002013
:1008B000E9F73197AF01461B570B0C942704CF93F0
:1008C000DF9300D0CDB7DEB7FC0111821082138216
:1008D00012821582148269831A82BE016F5F7F4F74
:1008E0000E9455040F900F90DF91CF910895CF9300
:1008F000DF93EC01FB018617970749F06081718156
:100900006115710541F0448155810E942704CE0193
:10091000DF91CF9108950E94B203F9CF9F92AF92D9
:10092000BF92CF92DF92EF92FF920F931F93CF93DC
:10093000DF9300D000D000D0CDB7DEB788E591E0DE
:100940000E9406010A970CF4BDC188E591E00E945F
:10095000E400982E8093440188E591E00E94E40031
:10096000A82E8093430188E591E00E94E400B82E10
:100970008093420188E591E00E94E400C82E8093B4
:10098000410188E591E00E94E400D82E8093400167
:1009900088E591E00E94E400E82E80933F0188E51D
:1009A00091E00E94E400F82E80933E0188E591E0FA
:1009B0000E94E400082F80933D0188E591E00E94A9
:1009C000E400182F80933C0188E591E00E94E40048
:1009D00080930001692DCE0101960E945F04BE0143
:1009E0006F5F7F4F85E292E00E947903CE0101960E
:1009F0000E94C4036A2DCE0101960E945F04BE01CD
:100A00006F5F7F4F8FE192E00E947903CE010196E4
:100A10000E94C4036B2DCE0101960E945F04BE01AB
:100A20006F5F7F4F89E192E00E947903CE010196CA
:100A30000E94C4036C2DCE0101960E945F04BE018A
:100A40006F5F7F4F83E192E00E947903CE010196B0
:100A50000E94C4036D2DCE0101960E945F04BE0169
:100A60006F5F7F4F8DE092E00E947903CE01019687
:100A70000E94C4036E2DCE0101960E945F04BE0148
:100A80006F5F7F4F87E092E00E947903CE0101966D
:100A90000E94C4036F2DCE0101960E945F04BE0127
:100AA0006F5F7F4F81E092E00E947903CE01019653
:100AB0000E94C403602FCE0101960E945F04BE0114
:100AC0006F5F7F4F8BEF91E00E947903CE0101961B
:100AD0000E94C403612FCE0101960E945F04BE01F3
:100AE0006F5F7F4F85EF91E00E947903CE01019601
:100AF0000E94C40385E292E00E946803882391F07B
:100B00006BE171E085E292E00E9455048FE192E092
:100B10000E946803882331F06BE171E08FE192E07D
:100B20000E94550483E192E00E946803882391F0BB
:100B30006BE171E083E192E00E9455048DE092E068
:100B40000E946803882331F06BE171E08DE092E050
:100B50000E94550481E092E00E946803882391F08E
:100B60006BE171E081E092E00E9455048BEF91E02F
:100B70000E946803882331F06BE171E08BEF91E014
:100B80000E9455041A8219821C821B821E821D82B9
:100B900065E272E0CE0101960E9477046FE172E097
:100BA000CE0101960E94F40369E172E00E94F40311
:100BB000BC0187E392E00E947704CE0101960E9477
:100BC000C4031A8219821C821B821E821D8263E169
:100BD00072E0CE0101960E9477046DE072E0CE01D2
:100BE00001960E94F40367E072E00E94F403BC01E6
:100BF00081E392E00E947704CE0101960E94C40333
:100C00001A8219821C821B821E821D8261E072E0A0
:100C1000CE0101960E9477046BEF71E0CE01019640
:100C20000E94F40365EF71E00E94F403BC018BE2C3
:100C300092E00E947704CE0101960E94C403809145
:100C4000370290913802009789F10E9479097093D8
:100C500057016093560180913102909132020097C2
:100C600049F10E9479097093550160935401809174
:100C70002B0290912C02009709F10E947909709340
:100C800053016093520181E026960FB6F894DEBFBF
:100C90000FBECDBFDF91CF911F910F91FF90EF90CD
:100CA000DF90CF90BF90AF909F90089560E070E08C
:100CB000CB01CDCF60E070E0CB01D5CF60E070E03C
:100CC000CB01DDCF80E0E0CFCF92DF92EF92FF92B9
:100CD0002FB7F89440914A0150914B0160914C011B
:100CE00070914D012FBF40934E0150934F0160937F
:100CF0005001709351016C01990FEE08FF082FB756
:100D0000F89480914A0190914B01A0914C01B091CF
:100D10004D012FBF40914E0150914F016091500104
:100D200070915101841B950BA60BB70B8C159D057B
:100D3000AE05BF0560F40E948E04809100018033EF
:100D4000F1F681E0FF90EF90DF90CF90089580E082
:100D5000F9CF1F920F920FB60F9211242F933F934A
:100D60004F935F936F937F938F939F93AF93BF93B3
:100D7000EF93FF9388E591E00E942601FF91EF91A8
:100D8000BF91AF919F918F917F916F915F914F91A3
:100D90003F912F910F900FBE0F901F9018951F92AB
:100DA0000F920FB60F9211242F938F939F93EF936F
:100DB000FF93E0916801F09169018081E0916E01FB
:100DC000F0916F0182FD1BC09081809171018F5F56
:100DD0008F7320917201821741F0E0917101F0E070
:100DE000E85AFE4F958F80937101FF91EF919F918B
:100DF0008F912F910F900FBE0F901F9018958081AB
:100E0000F4CF1F920F920FB60F9211242F933F939E
:100E10008F939F93AF93BF9380914A0190914B0121
:100E2000A0914C01B0914D013091450123E0230F79
:100E30002D3758F50196A11DB11D209345018093D2
:100E40004A0190934B01A0934C01B0934D018091C6
:100E5000460190914701A0914801B0914901019646
:100E6000A11DB11D8093460190934701A0934801B5
:100E7000B0934901BF91AF919F918F913F912F9175
:100E80000F900FBE0F901F90189526E8230F029623
:100E9000A11DB11DD2CFE8E5F1E01382128288EEE8
:100EA00093E0A0E0B0E084839583A683B7838BE0D2
:100EB00091E09183808385EC90E09587848784EC32
:100EC00090E09787868780EC90E0918B808B81EC17
:100ED00090E0938B828B82EC90E0958B848B86ECF8
:100EE00090E0978B868B118E128E138E148E87E373
:100EF00092E00E94480481E392E00E9448048BE261
:100F000092E00E94480485E292E00E9448048FE14A
:100F100092E00E94480489E192E00E94480483E143
:100F200092E00E9448048DE092E00E94480487E02D
:100F300092E00E94480481E092E00E9448048BEF16
:100F400091E00E94480485EF91E00C944804789465
:100F500084B5826084BD84B5816084BD85B58260BE
:100F600085BD85B5816085BD80916E00816080936F
:100F70006E001092810080918100826080938100D8
:100F800080918100816080938100809180008160E8
:100F9000809380008091B10084608093B100809143
:100FA000B00081608093B00080917A00846080936B
:100FB0007A0080917A00826080937A0080917A0032
:100FC000816080937A0080917A00806880937A00B3
:100FD0001092C10089E00E9488008AE00E94880087
:100FE00086E00E948800E0916801F091690182E04A
:100FF0008083E0916401F09165011082E0916601C7
:10100000F09167018FEC808310927001E0916C0188
:10101000F0916D0186E08083E0916A01F0916B01AF
:10102000808180618083E0916A01F0916B01808111
:1010300088608083E0916A01F0916B018081806813
:101040008083E0916A01F0916B0180818F7D8083C4
:1010500000E010E00E948E04882351F16091560157
:1010600070915701072E000C880B990B0E94ED021E
:101070008EE191E00E94D20260915401709155017D
:10108000072E000C880B990B0E94ED028EE191E077
:101090000E94D2026091520170915301072E000C00
:1010A000880B990B0E94ED028EE191E00E94DF0215
:1010B000809100018033E1F440915201509153013D
:1010C000609154017091550130E020E0809156010B
:1010D000909157010E9482020115110509F4BACFBF
:1010E0000E941201882309F4B5CF0E940000B2CFFC
:1010F000813391F780E291E00E94DF02D0E0C0E00E
:1011000029E130E050E040E0BE018FEF90E00E9426
:10111000820289E190E00E9464068111DDCF219670
:10112000C11581E0D80761F784EF91E00E94640661
:101130008111D2CF84E291E00E94DF02CFEFD0E0B4
:1011400029E130E050E040E06FEF70E0CE010E9416
:10115000820289E190E00E9464068111BDCF21974F
:1011600078F784EF91E00E9464068111B5CF88E2A0
:1011700091E00E94DF02D0E0C0E029E130E0AE0162
:101180006FEF70E090E080E00E94820289E190E0E1
:101190000E9464068111A0CF2196C11581E0D80775
:1011A00061F784EF91E00E946406811195CF8DE292
:1011B00091E00E94DF02CFEFD0E029E130E04FEF75
:1011C00050E0BE0190E080E00E94820289E190E060
:1011D0000E946406811180CF219778F72FB7F89489
:1011E00080914A0190914B01A0914C01B0914D0129
:1011F0002FBF80934E0190934F01A0935001B09365
:10120000510184EF91E00E946406811165CF82E371
:1012100091E00E94DF02D0E0C0E029E130E04FEF32
:1012200050E070E060E0CE010E94820289E190E02F
:101230000E946406811150CF2196C11581E0D80724
:1012400061F784EF91E00E946406811145CF86E347
:1012500091E00E94DF02CFEFD0E029E130E0AE0163
:1012600070E060E08FEF90E00E94820289E190E000
:101270000E946406811130CF219778F784EF91E0C6
:101280000E946406811128CF8AE391E00E94D20275
:1012900023CF85EF91E00E94C4038BEF91E00E9481
:1012A000C40381E092E00E94C40387E092E00E94C0
:1012B000C4038DE092E00E94C40383E192E00E94A7
:1012C000C40389E192E00E94C4038FE192E00E948E
:1012D000C40385E292E00E94C4038BE292E00E9484
:1012E000C40381E392E00E94C40387E392E00C947C
:1012F000C4031F93FC0199278827BC01E89411912E
:101300001032E9F3193010F01E30C8F31B3251F0DF
:101310001D3249F4689406C00E94A009610F711D36
:10132000811D911D119110531A30B0F33EF4909528
:101330008095709561957F4F8F4F9F4F1F910895B6
:10134000592F482F372F262F660F771F881F991F79
:10135000660F771F881F991F620F731F841F951FC9
:10136000660F771F881F991F08952F923F924F9203
:101370005F926F927F928F929F92AF92BF92CF9225
:10138000DF92EF92FF920F931F93CF93DF93CDB72E
:10139000DEB7CA1BDB0B0FB6F894DEBF0FBECDBFA6
:1013A00009942A88398848885F846E847D848C8477
:1013B0009B84AA84B984C884DF80EE80FD800C8180
:1013C0001B81AA81B981CE0FD11D0FB6F894DEBF63
:1013D0000FBECDBFED010895A1E21A2EAA1BBB1BC3
:1013E000FD010DC0AA1FBB1FEE1FFF1FA217B307F1
:1013F000E407F50720F0A21BB30BE40BF50B661F07
:10140000771F881F991F1A9469F7609570958095CA
:1014100090959B01AC01BD01CF010895EE0FFF1F18
:101420000590F491E02D09940F931F93CF93DF93D0
:101430008230910510F482E090E0E0913F02F0915B
:10144000400230E020E0B0E0A0E0309799F42115B0
:10145000310509F44AC0281B390B24303105D8F571
:101460008A819B816115710589F1FB0193838283D8
:10147000FE0111C040815181028113814817590733
:10148000E0F04817590799F4109761F012960C9301
:10149000129713961C933296CF01DF91CF911F9133
:1014A0000F91089500933F0210934002F4CF21154D
:1014B000310551F04217530738F0A901DB019A01B9
:1014C000BD01DF01F801C1CFEF01F9CF90934002D8
:1014D00080933F02CDCFFE01E20FF31F81939193E2
:1014E0002250310939832883D7CF20913D02309192
:1014F0003E02232B41F420910301309104013093EB
:101500003E0220933D0220910101309102012115FC
:10151000310541F42DB73EB74091050150910601C8
:10152000241B350BE0913D02F0913E02E217F307D8
:10153000A0F42E1B3F0B2817390778F0AC014E5F43
:101540005F4F2417350748F04E0F5F1F50933E0240
:1015500040933D02819391939FCFF0E0E0E09CCFD8
:10156000CF93DF930097E9F0FC0132971382128248
:10157000A0913F02B0914002ED0130E020E01097D1
:10158000A1F420813181820F931F20913D0230917F
:101590003E022817390709F061C0F0933E02E0933C
:1015A0003D02DF91CF910895EA01CE17DF07E8F5FC
:1015B0004A815B819E0141155105B1F7E901FB8329
:1015C000EA8349915991C40FD51FEC17FD0761F4C7
:1015D000808191810296840F951FE9019983888308
:1015E000828193819B838A83F0E0E0E012968D9163
:1015F0009C9113970097B9F52D913C911197CD01CE
:101600000296820F931F20913D0230913E022817CF
:10161000390739F6309751F51092400210923F0287
:10162000B0933E02A0933D02BCCFD383C2834081DE
:101630005181840F951FC817D90761F44E5F5F4F22
:1016400088819981480F591F518340838A819B81EA
:10165000938382832115310509F0B0CFF0934002C6
:10166000E0933F029ECFFD01DC01C0CF13821282C6
:10167000D7CFB0E0A0E0EFE3FBE00C94B7098C011A
:10168000009751F4CB010E94140A8C01C801CDB718
:10169000DEB7E0E10C94D309FC01E60FF71F9C01D3
:1016A00022503109E217F30708F49DC0D901CD910A
:1016B000DC911197C617D70798F0C530D10530F3E4
:1016C000CE0104978617970708F3C61BD70B2297FE
:1016D000C193D1936D937C93CF010E94B00AD6CF72
:1016E0005B01AC1ABD0A4C018C0E9D1EA0913F02FD
:1016F000B0914002512C412CF12CE12C109731F586
:1017000080913D0290913E028815990509F05CC0D8
:101710004616570608F058C08091010190910201C9
:10172000009741F48DB79EB7409105015091060195
:10173000841B950BE817F90708F055C0F0933E029B
:10174000E0933D02F90171836083A0CF8D919C915C
:10175000119712966C90129713967C901397A81578
:10176000B90559F56C0142E0C40ED11CCA14DB0462
:1017700020F1AC014A195B09DA011296159780F045
:101780006282738251834083D9016D937C93E1140B
:10179000F10471F0D7011396FC93EE93129776CF74
:1017A00022968C0F9D1FF90191838083F301EFCF67
:1017B000F0934002E0933F0269CF4816590608F4BF
:1017C0002C017D01D3019ACFCB010E94140A7C0128
:1017D000009749F0AE01B8010E94F60BC8010E94C3
:1017E000B00A870153CF10E000E050CFFB01DC01CD
:1017F00002C001900D9241505040D8F70895FB016E
:10180000DC018D91019080190110D9F3990B089595
:10181000FB01DC0101900D920020E1F7089510E03A
:10182000CDE5D0E004C0FE010E940E0A2196CE351F
:10183000D107C9F7F894FFCF3000004102800000C3
:101840000000004801A800D50095010601E400F859
:10185000000D0A0030002000722D7900792D6700FC
:10186000672D62620062622D6200622D7000702D31
:0418700072006100A1
:107800000C94343C0C94513C0C94513C0C94513CE1
:107810000C94513C0C94513C0C94513C0C94513CB4
:107820000C94513C0C94513C0C94513C0C94513CA4
:107830000C94513C0C94513C0C94513C0C94513C94
:107840000C94513C0C94513C0C94513C0C94513C84
:107850000C94513C0C94513C0C94513C0C94513C74
:107860000C94513C0C94513C11241FBECFEFD8E036
:10787000DEBFCDBF11E0A0E0B1E0ECE9FFE702C060
:1078800005900D92A230B107D9F712E0A2E0B1E065
:1078900001C01D92AD30B107E1F70E942D3D0C945F
:1078A000CC3F0C94003C982F959595959595959582
:1078B000905D8F708A307CF0282F295A8091C0000B
:1078C00085FFFCCF9093C6008091C00085FFFCCF60
:1078D0002093C6000895282F205DF0CF982F809127
:1078E000C00085FFFCCF9093C6000895EF92FF92F1
:1078F0000F931F93EE24FF2487018091C00087FD22
:1079000017C00894E11CF11C011D111D81E4E8164B
:1079100082E4F8068FE0080780E0180770F3E09132
:107920000401F091050109958091C00087FFE9CF1E
:107930008091C6001F910F91FF90EF9008950E94D3
:10794000763C982F8091C00085FFFCCF9093C600B5
:1079500091362CF490330CF09053892F089597555D
:10796000892F08951F930E949F3C182F0E949F3CCF
:107970001295107F810F1F9108951F93182F882350
:1079800021F00E94763C1150E1F71F9108951F935A
:10799000182F0E94763C803249F0809103018F5F5E
:1079A000809303018530C1F01F9108958091C0003C
:1079B00085FFFCCF84E18093C6008091C00085FFE5
:1079C000FCCF1093C6008091C00085FFFCCF80E102
:1079D0008093C6001F910895E0910401F091050184
:1079E00009951F9108950E94763C803241F0809164
:1079F00003018F5F80930301853081F008958091AA
:107A0000C00085FFFCCF84E18093C6008091C00058
:107A100085FFFCCF80E18093C6000895E0910401CA
:107A2000F09105010995089540E951E08823A1F0FE
:107A30002D9A28EE33E0FA013197F1F721503040CA
:107A4000D1F72D9828EE33E0FA013197F1F7215064
:107A50003040D1F7815061F708953F924F925F9285
:107A60006F927F928F929F92AF92BF92CF92DF924E
:107A7000EF92FF920F931F93CF93DF93000080E16B
:107A80008093C4001092C50088E18093C10086E015
:107A90008093C2005098589A259A81E00E94143D24
:107AA00024E1F22E9EE1E92E85E9D82E0FE0C02ECA
:107AB00010E1B12EAA24A394B1E49B2EA6E58A2E50
:107AC000F2E57F2EE0E26E2E79E4572E63E5462E36
:107AD00050E5352E0E94763C8033B1F18133B9F107
:107AE000803409F46FC0813409F476C0823409F41B
:107AF00085C0853409F488C0803531F1823521F1A3
:107B0000813511F1853509F485C0863509F48DC0BC
:107B1000843609F496C0843709F403C1853709F423
:107B200072C1863709F466C0809103018F5F80932C
:107B30000301853079F6E0910401F0910501099582
:107B40000E94763C803351F60E94F33CC3CF0E94E2
:107B5000763C803249F78091C00085FFFCCFF092DF
:107B6000C6008091C00085FFFCCF9092C600809136
:107B7000C00085FFFCCF8092C6008091C00085FFC9
:107B8000FCCF7092C6008091C00085FFFCCF609250
:107B9000C6008091C00085FFFCCF5092C600809146
:107BA000C00085FFFCCF4092C6008091C00085FFD9
:107BB000FCCF3092C6008091C00085FFFCCFB09210
:107BC000C60088CF0E94763C863808F4BDCF0E945C
:107BD000763C0E94F33C7ECF0E94763C803809F4CC
:107BE0009CC0813809F40BC1823809F43CC1883942
:107BF00009F48FC080E00E94C73C6CCF84E10E94F2
:107C0000BD3C0E94F33C66CF85E00E94BD3C0E94D3
:107C1000F33C60CF0E94763C809306010E94763C44
:107C2000809307010E94F33C55CF0E94763C80333D
:107C300009F41DC183E00E94BD3C80E00E94C73C66
:107C400049CF0E94763C809309020E94763C809343
:107C5000080280910C028E7F80930C020E94763C79
:107C6000853409F415C18091080290910902892B8D
:107C700089F000E010E00E94763CF801E85FFE4FDA
:107C800080830F5F1F4F80910802909109020817AF
:107C9000190788F30E94763C803209F045CF809125
:107CA0000C0280FF01C16091060170910701660F0F
:107CB000771F7093070160930601A0910802B091AD
:107CC00009021097C9F0E8E0F1E09B01AD014E0F09
:107CD0005F1FF999FECF32BD21BD819180BDFA9A17
:107CE000F99A2F5F3F4FE417F50799F76A0F7B1F4B
:107CF00070930701609306018091C00085FFFCCF5F
:107D0000F092C6008091C00085FFFCCFB092C60003
:107D1000E1CE83E00E94C73CDDCE82E00E94C73CFA
:107D2000D9CE0E94763C809309020E94763C8093D3
:107D300008028091060190910701880F991F909386
:107D40000701809306010E94763C853409F4A6C0A1
:107D500080910C028E7F80930C020E94763C8032D0
:107D600009F0B8CE8091C00085FFFCCFF092C6002C
:107D7000609108027091090261157105B9F140E046
:107D800050E080910C02A82FA170B82FB27011C0E2
:107D9000BB2309F45CC0E0910601F0910701319624
:107DA000F0930701E09306014F5F5F4F46175707B7
:107DB000E8F4AA2369F3F999FECF209106013091E6
:107DC000070132BD21BDF89A90B58091C00085FFB2
:107DD000FCCF9093C6002F5F3F4F30930701209355
:107DE00006014F5F5F4F4617570718F38091C00099
:107DF00085FDE5CE8091C00085FFF8CFE0CE81E023
:107E00000E94C73C67CE0E94763C803209F08CCE3F
:107E10008091C00085FFFCCFF092C6008091C00029
:107E200085FFFCCFE092C6008091C00085FFFCCFAB
:107E3000D092C6008091C00085FFFCCFC092C600E2
:107E40008091C00085FFFCCFB092C60043CEE09188
:107E50000601F091070194918091C00085FFFCCF4D
:107E60009093C6009CCF80E10E94C73C33CE0E9415
:107E7000763C0E94763C182F0E94763C112309F430
:107E800083C0113009F484C08FE00E94C73C22CE29
:107E900080910C02816080930C02E5CE80910C02EF
:107EA000816080930C0259CF809107018823880F4D
:107EB000880B8A2180930B02809106019091070123
:107EC000880F991F90930701809306018091080203
:107ED00080FF09C080910802909109020196909359
:107EE000090280930802F894F999FECF1127E091D6
:107EF0000601F0910701C8E0D1E08091080290915D
:107F00000902103091F40091570001700130D9F34B
:107F100003E000935700E89500915700017001308D
:107F2000D9F301E100935700E89509901990009169
:107F3000570001700130D9F301E000935700E89534
:107F40001395103498F011270091570001700130FB
:107F5000D9F305E000935700E895009157000170B0
:107F60000130D9F301E100935700E895329602976A
:107F700009F0C7CF103011F00296E5CF112480919F
:107F8000C00085FFB9CEBCCE8EE10E94C73CA2CD19
:0E7F900085E90E94C73C9ECDF894FFCF80008B
:00000001FF
